{
  "address": "0x5FbDB2315678afecb367f032d93F642f64180aa3",
  "abi": [
    {
      "inputs": [],
      "stateMutability": "nonpayable",
      "type": "constructor"
    },
    {
      "anonymous": false,
      "inputs": [
        {
          "indexed": true,
          "internalType": "address",
          "name": "player",
          "type": "address"
        },
        {
          "indexed": false,
          "internalType": "uint256",
          "name": "betAmount",
          "type": "uint256"
        },
        {
          "indexed": false,
          "internalType": "uint8",
          "name": "choice",
          "type": "uint8"
        }
      ],
      "name": "GameCreated",
      "type": "event"
    },
    {
      "anonymous": false,
      "inputs": [
        {
          "indexed": true,
          "internalType": "address",
          "name": "player",
          "type": "address"
        },
        {
          "indexed": false,
          "internalType": "uint256",
          "name": "prize",
          "type": "uint256"
        },
        {
          "indexed": false,
          "internalType": "uint256",
          "name": "choice",
          "type": "uint256"
        },
        {
          "indexed": false,
          "internalType": "uint256",
          "name": "result",
          "type": "uint256"
        },
        {
          "indexed": false,
          "internalType": "enum CoinFlip.Status",
          "name": "status",
          "type": "uint8"
        }
      ],
      "name": "GamePlayed",
      "type": "event"
    },
    {
      "inputs": [],
      "name": "coeff",
      "outputs": [
        {
          "internalType": "uint256",
          "name": "",
          "type": "uint256"
        }
      ],
      "stateMutability": "view",
      "type": "function"
    },
    {
      "inputs": [
        {
          "internalType": "bytes32",
          "name": "seed",
          "type": "bytes32"
        },
        {
          "internalType": "uint8",
          "name": "_v",
          "type": "uint8"
        },
        {
          "internalType": "bytes32",
          "name": "_r",
          "type": "bytes32"
        },
        {
          "internalType": "bytes32",
          "name": "_s",
          "type": "bytes32"
        }
      ],
      "name": "confirm",
      "outputs": [],
      "stateMutability": "nonpayable",
      "type": "function"
    },
    {
      "inputs": [],
      "name": "croupie",
      "outputs": [
        {
          "internalType": "address",
          "name": "",
          "type": "address"
        }
      ],
      "stateMutability": "view",
      "type": "function"
    },
    {
      "inputs": [
        {
          "internalType": "bytes32",
          "name": "",
          "type": "bytes32"
        }
      ],
      "name": "games",
      "outputs": [
        {
          "internalType": "uint256",
          "name": "id",
          "type": "uint256"
        },
        {
          "internalType": "address",
          "name": "player",
          "type": "address"
        },
        {
          "internalType": "uint8",
          "name": "choice",
          "type": "uint8"
        },
        {
          "internalType": "uint256",
          "name": "betAmount",
          "type": "uint256"
        },
        {
          "internalType": "uint256",
          "name": "prize",
          "type": "uint256"
        },
        {
          "internalType": "uint256",
          "name": "result",
          "type": "uint256"
        },
        {
          "internalType": "enum CoinFlip.Status",
          "name": "status",
          "type": "uint8"
        }
      ],
      "stateMutability": "view",
      "type": "function"
    },
    {
      "inputs": [],
      "name": "gamesCount",
      "outputs": [
        {
          "internalType": "uint256",
          "name": "",
          "type": "uint256"
        }
      ],
      "stateMutability": "view",
      "type": "function"
    },
    {
      "inputs": [],
      "name": "maxBet",
      "outputs": [
        {
          "internalType": "uint256",
          "name": "",
          "type": "uint256"
        }
      ],
      "stateMutability": "view",
      "type": "function"
    },
    {
      "inputs": [],
      "name": "minBet",
      "outputs": [
        {
          "internalType": "uint256",
          "name": "",
          "type": "uint256"
        }
      ],
      "stateMutability": "view",
      "type": "function"
    },
    {
      "inputs": [],
      "name": "owner",
      "outputs": [
        {
          "internalType": "address",
          "name": "",
          "type": "address"
        }
      ],
      "stateMutability": "view",
      "type": "function"
    },
    {
      "inputs": [
        {
          "internalType": "uint8",
          "name": "choice",
          "type": "uint8"
        },
        {
          "internalType": "bytes32",
          "name": "seed",
          "type": "bytes32"
        }
      ],
      "name": "play",
      "outputs": [],
      "stateMutability": "payable",
      "type": "function"
    },
    {
      "inputs": [],
      "name": "profit",
      "outputs": [
        {
          "internalType": "uint256",
          "name": "",
          "type": "uint256"
        }
      ],
      "stateMutability": "view",
      "type": "function"
    },
    {
      "inputs": [
        {
          "internalType": "uint256",
          "name": "_minBet",
          "type": "uint256"
        },
        {
          "internalType": "uint256",
          "name": "_maxBet",
          "type": "uint256"
        }
      ],
      "name": "setBetRange",
      "outputs": [],
      "stateMutability": "nonpayable",
      "type": "function"
    },
    {
      "inputs": [
        {
          "internalType": "uint256",
          "name": "_coeff",
          "type": "uint256"
        }
      ],
      "name": "setCoeff",
      "outputs": [],
      "stateMutability": "nonpayable",
      "type": "function"
    },
    {
      "inputs": [
        {
          "internalType": "uint256",
          "name": "_amount",
          "type": "uint256"
        }
      ],
      "name": "withdraw",
      "outputs": [],
      "stateMutability": "nonpayable",
      "type": "function"
    }
  ],
  "transactionHash": "0x0c9a1cdd58b286f8a7bd4689a6c837a79ee8d6503abab527ea3756cca432613e",
  "args": [],
  "numDeployments": 1,
  "solcInputHash": "f4bffa54ec8d5e46eda13a064c047eb6",
  "bytecode": "0x6080604052662386f26fc10000600455678ac7230489e8000060055560c360065534801561002c57600080fd5b5033600160006101000a81548173ffffffffffffffffffffffffffffffffffffffff021916908373ffffffffffffffffffffffffffffffffffffffff16021790555033600260006101000a81548173ffffffffffffffffffffffffffffffffffffffff021916908373ffffffffffffffffffffffffffffffffffffffff160217905550611871806100be6000396000f3fe6080604052600436106100c25760003560e01c80639619367d1161007f578063b00606a511610059578063b00606a514610244578063bbe8dbcf1461026d578063f579f88214610289578063fb632b7c146102cc576100c2565b80639619367d146101c7578063a718104e146101f2578063abae50501461021b576100c2565b80632e1a7d4d146100c75780632e5b2168146100f057806366d16cc31461011b57806379ae409b1461014657806387b261ad146101715780638da5cb5b1461019c575b600080fd5b3480156100d357600080fd5b506100ee60048036038101906100e99190610eea565b6102f7565b005b3480156100fc57600080fd5b5061010561042d565b6040516101129190611296565b60405180910390f35b34801561012757600080fd5b50610130610433565b60405161013d9190611296565b60405180910390f35b34801561015257600080fd5b5061015b610439565b6040516101689190611156565b60405180910390f35b34801561017d57600080fd5b5061018661045f565b6040516101939190611296565b60405180910390f35b3480156101a857600080fd5b506101b1610465565b6040516101be9190611156565b60405180910390f35b3480156101d357600080fd5b506101dc61048b565b6040516101e99190611296565b60405180910390f35b3480156101fe57600080fd5b5061021960048036038101906102149190610eea565b610491565b005b34801561022757600080fd5b50610242600480360381019061023d9190610f17565b61056e565b005b34801561025057600080fd5b5061026b60048036038101906102669190610e83565b6106a1565b005b61028760048036038101906102829190610f57565b610a73565b005b34801561029557600080fd5b506102b060048036038101906102ab9190610e56565b610d95565b6040516102c397969594939291906112b1565b60405180910390f35b3480156102d857600080fd5b506102e1610e11565b6040516102ee9190611296565b60405180910390f35b600160009054906101000a900473ffffffffffffffffffffffffffffffffffffffff1673ffffffffffffffffffffffffffffffffffffffff163373ffffffffffffffffffffffffffffffffffffffff1614610387576040517f08c379a000000000000000000000000000000000000000000000000000000000815260040161037e90611276565b60405180910390fd5b478111156103ca576040517f08c379a00000000000000000000000000000000000000000000000000000000081526004016103c190611256565b60405180910390fd5b80600760008282546103dc9190611496565b925050819055503373ffffffffffffffffffffffffffffffffffffffff166108fc829081150290604051600060405180830381858888f19350505050158015610429573d6000803e3d6000fd5b5050565b60055481565b60075481565b600260009054906101000a900473ffffffffffffffffffffffffffffffffffffffff1681565b60065481565b600160009054906101000a900473ffffffffffffffffffffffffffffffffffffffff1681565b60045481565b600160009054906101000a900473ffffffffffffffffffffffffffffffffffffffff1673ffffffffffffffffffffffffffffffffffffffff163373ffffffffffffffffffffffffffffffffffffffff1614610521576040517f08c379a000000000000000000000000000000000000000000000000000000000815260040161051890611276565b60405180910390fd5b60648111610564576040517f08c379a000000000000000000000000000000000000000000000000000000000815260040161055b90611256565b60405180910390fd5b8060068190555050565b600160009054906101000a900473ffffffffffffffffffffffffffffffffffffffff1673ffffffffffffffffffffffffffffffffffffffff163373ffffffffffffffffffffffffffffffffffffffff16146105fe576040517f08c379a00000000000000000000000000000000000000000000000000000000081526004016105f590611276565b60405180910390fd5b60008111801561060e5750600082115b61064d576040517f08c379a000000000000000000000000000000000000000000000000000000000815260040161064490611256565b60405180910390fd5b81811161068f576040517f08c379a000000000000000000000000000000000000000000000000000000000815260040161068690611256565b60405180910390fd5b81600481905550806005819055505050565b83600080600083815260200190815260200160002060000154146106fa576040517f08c379a00000000000000000000000000000000000000000000000000000000081526004016106f1906111b6565b60405180910390fd5b60006040518060400160405280601c81526020017f19457468657265756d205369676e6564204d6573736167653a0a33320000000081525090506000818760405160200161074992919061112e565b604051602081830303815290604052805190602001209050600260009054906101000a900473ffffffffffffffffffffffffffffffffffffffff1673ffffffffffffffffffffffffffffffffffffffff16600182888888604051600081526020016040526040516107bd9493929190611171565b6020604051602081039080840390855afa1580156107df573d6000803e3d6000fd5b5050506020604051035173ffffffffffffffffffffffffffffffffffffffff161461083f576040517f08c379a000000000000000000000000000000000000000000000000000000000815260040161083690611236565b60405180910390fd5b600060028560001c61085191906115da565b905060008060008a81526020019081526020016000209050818160010160149054906101000a900460ff1660ff1614156109725760018160050160006101000a81548160ff021916908360028111156108ad576108ac611669565b5b0217905550818160040181905550606460065482600201546108cf919061143c565b6108d9919061140b565b81600301819055508060030154600760008282546108f79190611496565b925050819055508060010160009054906101000a900473ffffffffffffffffffffffffffffffffffffffff1673ffffffffffffffffffffffffffffffffffffffff166108fc82600301549081150290604051600060405180830381858888f1935050505015801561096c573d6000803e3d6000fd5b506109c6565b60028160050160006101000a81548160ff0219169083600281111561099a57610999611669565b5b02179055508181600401819055508060020154600760008282546109be91906113b5565b925050819055505b8060010160009054906101000a900473ffffffffffffffffffffffffffffffffffffffff1673ffffffffffffffffffffffffffffffffffffffff167f273691d76e742e50a25676f32533b8e1643978710ca9cb8ab0f40d5dd2bdafbd82600301548360010160149054906101000a900460ff1684600401548560050160009054906101000a900460ff16604051610a609493929190611349565b60405180910390a2505050505050505050565b8060008060008381526020019081526020016000206000015414610acc576040517f08c379a0000000000000000000000000000000000000000000000000000000008152600401610ac3906111b6565b60405180910390fd5b60008360ff161480610ae1575060018360ff16145b610b20576040517f08c379a0000000000000000000000000000000000000000000000000000000008152600401610b17906111f6565b60405180910390fd5b6004543410158015610b3457506005543411155b610b73576040517f08c379a0000000000000000000000000000000000000000000000000000000008152600401610b6a906111d6565b60405180910390fd5b6000606460065434610b85919061143c565b610b8f919061140b565b9050806007541015610bd6576040517f08c379a0000000000000000000000000000000000000000000000000000000008152600401610bcd90611216565b60405180910390fd5b60036000815480929190610be990611587565b91905055503460076000828254610c0091906113b5565b925050819055506040518060e0016040528060035481526020013373ffffffffffffffffffffffffffffffffffffffff1681526020018560ff168152602001348152602001600081526020016000815260200160006002811115610c6757610c66611669565b5b8152506000808581526020019081526020016000206000820151816000015560208201518160010160006101000a81548173ffffffffffffffffffffffffffffffffffffffff021916908373ffffffffffffffffffffffffffffffffffffffff16021790555060408201518160010160146101000a81548160ff021916908360ff160217905550606082015181600201556080820151816003015560a0820151816004015560c08201518160050160006101000a81548160ff02191690836002811115610d3757610d36611669565b5b02179055509050503373ffffffffffffffffffffffffffffffffffffffff167f813c6ee3dcb6de7261f7e83f20145431b1c006bc9e1145d89835d62dd31155503486604051610d87929190611320565b60405180910390a250505050565b60006020528060005260406000206000915090508060000154908060010160009054906101000a900473ffffffffffffffffffffffffffffffffffffffff16908060010160149054906101000a900460ff16908060020154908060030154908060040154908060050160009054906101000a900460ff16905087565b60035481565b600081359050610e26816117f6565b92915050565b600081359050610e3b8161180d565b92915050565b600081359050610e5081611824565b92915050565b600060208284031215610e6c57610e6b611698565b5b6000610e7a84828501610e17565b91505092915050565b60008060008060808587031215610e9d57610e9c611698565b5b6000610eab87828801610e17565b9450506020610ebc87828801610e41565b9350506040610ecd87828801610e17565b9250506060610ede87828801610e17565b91505092959194509250565b600060208284031215610f0057610eff611698565b5b6000610f0e84828501610e2c565b91505092915050565b60008060408385031215610f2e57610f2d611698565b5b6000610f3c85828601610e2c565b9250506020610f4d85828601610e2c565b9150509250929050565b60008060408385031215610f6e57610f6d611698565b5b6000610f7c85828601610e41565b9250506020610f8d85828601610e17565b9150509250929050565b610fa0816114ca565b82525050565b610faf816114dc565b82525050565b610fc6610fc1826114dc565b6115d0565b82525050565b6000610fd78261138e565b610fe18185611399565b9350610ff1818560208601611554565b80840191505092915050565b61100681611530565b82525050565b6000611019601a836113a4565b91506110248261169d565b602082019050919050565b600061103c601b836113a4565b9150611047826116c6565b602082019050919050565b600061105f601c836113a4565b915061106a826116ef565b602082019050919050565b60006110826029836113a4565b915061108d82611718565b604082019050919050565b60006110a5600c836113a4565b91506110b082611767565b602082019050919050565b60006110c86005836113a4565b91506110d382611790565b602082019050919050565b60006110eb6014836113a4565b91506110f6826117b9565b602082019050919050565b61110a81611519565b82525050565b61111981611542565b82525050565b61112881611523565b82525050565b600061113a8285610fcc565b91506111468284610fb5565b6020820191508190509392505050565b600060208201905061116b6000830184610f97565b92915050565b60006080820190506111866000830187610fa6565b611193602083018661111f565b6111a06040830185610fa6565b6111ad6060830184610fa6565b95945050505050565b600060208201905081810360008301526111cf8161100c565b9050919050565b600060208201905081810360008301526111ef8161102f565b9050919050565b6000602082019050818103600083015261120f81611052565b9050919050565b6000602082019050818103600083015261122f81611075565b9050919050565b6000602082019050818103600083015261124f81611098565b9050919050565b6000602082019050818103600083015261126f816110bb565b9050919050565b6000602082019050818103600083015261128f816110de565b9050919050565b60006020820190506112ab6000830184611101565b92915050565b600060e0820190506112c6600083018a611101565b6112d36020830189610f97565b6112e0604083018861111f565b6112ed6060830187611101565b6112fa6080830186611101565b61130760a0830185611101565b61131460c0830184610ffd565b98975050505050505050565b60006040820190506113356000830185611101565b611342602083018461111f565b9392505050565b600060808201905061135e6000830187611101565b61136b6020830186611110565b6113786040830185611101565b6113856060830184610ffd565b95945050505050565b600081519050919050565b600081905092915050565b600082825260208201905092915050565b60006113c082611519565b91506113cb83611519565b9250827fffffffffffffffffffffffffffffffffffffffffffffffffffffffffffffffff03821115611400576113ff61160b565b5b828201905092915050565b600061141682611519565b915061142183611519565b9250826114315761143061163a565b5b828204905092915050565b600061144782611519565b915061145283611519565b9250817fffffffffffffffffffffffffffffffffffffffffffffffffffffffffffffffff048311821515161561148b5761148a61160b565b5b828202905092915050565b60006114a182611519565b91506114ac83611519565b9250828210156114bf576114be61160b565b5b828203905092915050565b60006114d5826114f9565b9050919050565b6000819050919050565b60008190506114f4826117e2565b919050565b600073ffffffffffffffffffffffffffffffffffffffff82169050919050565b6000819050919050565b600060ff82169050919050565b600061153b826114e6565b9050919050565b600061154d82611523565b9050919050565b60005b83811015611572578082015181840152602081019050611557565b83811115611581576000848401525b50505050565b600061159282611519565b91507fffffffffffffffffffffffffffffffffffffffffffffffffffffffffffffffff8214156115c5576115c461160b565b5b600182019050919050565b6000819050919050565b60006115e582611519565b91506115f083611519565b925082611600576115ff61163a565b5b828206905092915050565b7f4e487b7100000000000000000000000000000000000000000000000000000000600052601160045260246000fd5b7f4e487b7100000000000000000000000000000000000000000000000000000000600052601260045260246000fd5b7f4e487b7100000000000000000000000000000000000000000000000000000000600052602160045260246000fd5b600080fd5b7f436f696e466c69703a204f6e6c7920756e697175652073656564000000000000600082015250565b7f436f696e466c69703a206f6e6c792062657420696e2072616e67650000000000600082015250565b7f436f696e466c69703a2043686f696365206f6e6c792030206f72203100000000600082015250565b7f436f696e466c69703a206e6f7420656e6f756768742062616c616e6365206f6e60008201527f20636f6e74726163740000000000000000000000000000000000000000000000602082015250565b7f496e76616c6964207369676e0000000000000000000000000000000000000000600082015250565b7f4572726f72000000000000000000000000000000000000000000000000000000600082015250565b7f436f696e466c69703a204f6e6c79206f776e6572000000000000000000000000600082015250565b600381106117f3576117f2611669565b5b50565b6117ff816114dc565b811461180a57600080fd5b50565b61181681611519565b811461182157600080fd5b50565b61182d81611523565b811461183857600080fd5b5056fea264697066735822122038960f5259a08774437def702f9d271e519bab4ec4b954f399d7567910f2adf564736f6c63430008070033",
  "devdoc": {
    "kind": "dev",
    "methods": {},
    "version": 1
  },
  "userdoc": {
    "kind": "user",
    "methods": {},
    "version": 1
  },
  "storageLayout": {
    "storage": [
      {
        "astId": 26,
        "contract": "contracts/CoinFlip.sol:CoinFlip",
        "label": "games",
        "offset": 0,
        "slot": "0",
        "type": "t_mapping(t_bytes32,t_struct(Game)21_storage)"
      },
      {
        "astId": 28,
        "contract": "contracts/CoinFlip.sol:CoinFlip",
        "label": "owner",
        "offset": 0,
        "slot": "1",
        "type": "t_address"
      },
      {
        "astId": 30,
        "contract": "contracts/CoinFlip.sol:CoinFlip",
        "label": "croupie",
        "offset": 0,
        "slot": "2",
        "type": "t_address"
      },
      {
        "astId": 32,
        "contract": "contracts/CoinFlip.sol:CoinFlip",
        "label": "gamesCount",
        "offset": 0,
        "slot": "3",
        "type": "t_uint256"
      },
      {
        "astId": 35,
        "contract": "contracts/CoinFlip.sol:CoinFlip",
        "label": "minBet",
        "offset": 0,
        "slot": "4",
        "type": "t_uint256"
      },
      {
        "astId": 38,
        "contract": "contracts/CoinFlip.sol:CoinFlip",
        "label": "maxBet",
        "offset": 0,
        "slot": "5",
        "type": "t_uint256"
      },
      {
        "astId": 41,
        "contract": "contracts/CoinFlip.sol:CoinFlip",
        "label": "coeff",
        "offset": 0,
        "slot": "6",
        "type": "t_uint256"
      },
      {
        "astId": 43,
        "contract": "contracts/CoinFlip.sol:CoinFlip",
        "label": "profit",
        "offset": 0,
        "slot": "7",
        "type": "t_uint256"
      }
    ],
    "types": {
      "t_address": {
        "encoding": "inplace",
        "label": "address",
        "numberOfBytes": "20"
      },
      "t_bytes32": {
        "encoding": "inplace",
        "label": "bytes32",
        "numberOfBytes": "32"
      },
      "t_enum(Status)5": {
        "encoding": "inplace",
        "label": "enum CoinFlip.Status",
        "numberOfBytes": "1"
      },
      "t_mapping(t_bytes32,t_struct(Game)21_storage)": {
        "encoding": "mapping",
        "key": "t_bytes32",
        "label": "mapping(bytes32 => struct CoinFlip.Game)",
        "numberOfBytes": "32",
        "value": "t_struct(Game)21_storage"
      },
      "t_struct(Game)21_storage": {
        "encoding": "inplace",
        "label": "struct CoinFlip.Game",
        "members": [
          {
            "astId": 7,
            "contract": "contracts/CoinFlip.sol:CoinFlip",
            "label": "id",
            "offset": 0,
            "slot": "0",
            "type": "t_uint256"
          },
          {
            "astId": 9,
            "contract": "contracts/CoinFlip.sol:CoinFlip",
            "label": "player",
            "offset": 0,
            "slot": "1",
            "type": "t_address"
          },
          {
            "astId": 11,
            "contract": "contracts/CoinFlip.sol:CoinFlip",
            "label": "choice",
            "offset": 20,
            "slot": "1",
            "type": "t_uint8"
          },
          {
            "astId": 13,
            "contract": "contracts/CoinFlip.sol:CoinFlip",
            "label": "betAmount",
            "offset": 0,
            "slot": "2",
            "type": "t_uint256"
          },
          {
            "astId": 15,
            "contract": "contracts/CoinFlip.sol:CoinFlip",
            "label": "prize",
            "offset": 0,
            "slot": "3",
            "type": "t_uint256"
          },
          {
            "astId": 17,
            "contract": "contracts/CoinFlip.sol:CoinFlip",
            "label": "result",
            "offset": 0,
            "slot": "4",
            "type": "t_uint256"
          },
          {
            "astId": 20,
            "contract": "contracts/CoinFlip.sol:CoinFlip",
            "label": "status",
            "offset": 0,
            "slot": "5",
            "type": "t_enum(Status)5"
          }
        ],
        "numberOfBytes": "192"
      },
      "t_uint256": {
        "encoding": "inplace",
        "label": "uint256",
        "numberOfBytes": "32"
      },
      "t_uint8": {
        "encoding": "inplace",
        "label": "uint8",
        "numberOfBytes": "1"
      }
    }
  }
}